{
	"_format": "hh-sol-artifact-1",
	"contractName": "CredentialContract",
	"sourceName": "contracts/CredentialContract.sol",
	"abi": [
		{
			"inputs": [
				{
					"internalType": "address",
					"name": "identityAddress",
					"type": "address"
				}
			],
			"stateMutability": "nonpayable",
			"type": "constructor"
		},
		{
			"inputs": [],
			"name": "AccessControlBadConfirmation",
			"type": "error"
		},
		{
			"inputs": [
				{
					"internalType": "address",
					"name": "account",
					"type": "address"
				},
				{
					"internalType": "bytes32",
					"name": "neededRole",
					"type": "bytes32"
				}
			],
			"name": "AccessControlUnauthorizedAccount",
			"type": "error"
		},
		{
			"inputs": [
				{
					"internalType": "address",
					"name": "sender",
					"type": "address"
				},
				{
					"internalType": "uint256",
					"name": "tokenId",
					"type": "uint256"
				},
				{
					"internalType": "address",
					"name": "owner",
					"type": "address"
				}
			],
			"name": "ERC721IncorrectOwner",
			"type": "error"
		},
		{
			"inputs": [
				{
					"internalType": "address",
					"name": "operator",
					"type": "address"
				},
				{
					"internalType": "uint256",
					"name": "tokenId",
					"type": "uint256"
				}
			],
			"name": "ERC721InsufficientApproval",
			"type": "error"
		},
		{
			"inputs": [
				{
					"internalType": "address",
					"name": "approver",
					"type": "address"
				}
			],
			"name": "ERC721InvalidApprover",
			"type": "error"
		},
		{
			"inputs": [
				{
					"internalType": "address",
					"name": "operator",
					"type": "address"
				}
			],
			"name": "ERC721InvalidOperator",
			"type": "error"
		},
		{
			"inputs": [
				{
					"internalType": "address",
					"name": "owner",
					"type": "address"
				}
			],
			"name": "ERC721InvalidOwner",
			"type": "error"
		},
		{
			"inputs": [
				{
					"internalType": "address",
					"name": "receiver",
					"type": "address"
				}
			],
			"name": "ERC721InvalidReceiver",
			"type": "error"
		},
		{
			"inputs": [
				{
					"internalType": "address",
					"name": "sender",
					"type": "address"
				}
			],
			"name": "ERC721InvalidSender",
			"type": "error"
		},
		{
			"inputs": [
				{
					"internalType": "uint256",
					"name": "tokenId",
					"type": "uint256"
				}
			],
			"name": "ERC721NonexistentToken",
			"type": "error"
		},
		{
			"anonymous": false,
			"inputs": [
				{
					"indexed": true,
					"internalType": "address",
					"name": "owner",
					"type": "address"
				},
				{
					"indexed": true,
					"internalType": "address",
					"name": "approved",
					"type": "address"
				},
				{
					"indexed": true,
					"internalType": "uint256",
					"name": "tokenId",
					"type": "uint256"
				}
			],
			"name": "Approval",
			"type": "event"
		},
		{
			"anonymous": false,
			"inputs": [
				{
					"indexed": true,
					"internalType": "address",
					"name": "owner",
					"type": "address"
				},
				{
					"indexed": true,
					"internalType": "address",
					"name": "operator",
					"type": "address"
				},
				{
					"indexed": false,
					"internalType": "bool",
					"name": "approved",
					"type": "bool"
				}
			],
			"name": "ApprovalForAll",
			"type": "event"
		},
		{
			"anonymous": false,
			"inputs": [
				{
					"indexed": false,
					"internalType": "uint256",
					"name": "_fromTokenId",
					"type": "uint256"
				},
				{
					"indexed": false,
					"internalType": "uint256",
					"name": "_toTokenId",
					"type": "uint256"
				}
			],
			"name": "BatchMetadataUpdate",
			"type": "event"
		},
		{
			"anonymous": false,
			"inputs": [
				{
					"indexed": true,
					"internalType": "uint256",
					"name": "tokenId",
					"type": "uint256"
				},
				{
					"indexed": true,
					"internalType": "address",
					"name": "to",
					"type": "address"
				},
				{
					"indexed": false,
					"internalType": "bytes32",
					"name": "credentialHash",
					"type": "bytes32"
				}
			],
			"name": "CredentialIssued",
			"type": "event"
		},
		{
			"anonymous": false,
			"inputs": [
				{
					"indexed": true,
					"internalType": "uint256",
					"name": "tokenId",
					"type": "uint256"
				}
			],
			"name": "CredentialRevoked",
			"type": "event"
		},
		{
			"anonymous": false,
			"inputs": [
				{
					"indexed": false,
					"internalType": "uint256",
					"name": "_tokenId",
					"type": "uint256"
				}
			],
			"name": "MetadataUpdate",
			"type": "event"
		},
		{
			"anonymous": false,
			"inputs": [
				{
					"indexed": true,
					"internalType": "bytes32",
					"name": "role",
					"type": "bytes32"
				},
				{
					"indexed": true,
					"internalType": "bytes32",
					"name": "previousAdminRole",
					"type": "bytes32"
				},
				{
					"indexed": true,
					"internalType": "bytes32",
					"name": "newAdminRole",
					"type": "bytes32"
				}
			],
			"name": "RoleAdminChanged",
			"type": "event"
		},
		{
			"anonymous": false,
			"inputs": [
				{
					"indexed": true,
					"internalType": "bytes32",
					"name": "role",
					"type": "bytes32"
				},
				{
					"indexed": true,
					"internalType": "address",
					"name": "account",
					"type": "address"
				},
				{
					"indexed": true,
					"internalType": "address",
					"name": "sender",
					"type": "address"
				}
			],
			"name": "RoleGranted",
			"type": "event"
		},
		{
			"anonymous": false,
			"inputs": [
				{
					"indexed": true,
					"internalType": "bytes32",
					"name": "role",
					"type": "bytes32"
				},
				{
					"indexed": true,
					"internalType": "address",
					"name": "account",
					"type": "address"
				},
				{
					"indexed": true,
					"internalType": "address",
					"name": "sender",
					"type": "address"
				}
			],
			"name": "RoleRevoked",
			"type": "event"
		},
		{
			"anonymous": false,
			"inputs": [
				{
					"indexed": true,
					"internalType": "address",
					"name": "from",
					"type": "address"
				},
				{
					"indexed": true,
					"internalType": "address",
					"name": "to",
					"type": "address"
				},
				{
					"indexed": true,
					"internalType": "uint256",
					"name": "tokenId",
					"type": "uint256"
				}
			],
			"name": "Transfer",
			"type": "event"
		},
		{
			"inputs": [],
			"name": "DEFAULT_ADMIN_ROLE",
			"outputs": [
				{
					"internalType": "bytes32",
					"name": "",
					"type": "bytes32"
				}
			],
			"stateMutability": "view",
			"type": "function"
		},
		{
			"inputs": [],
			"name": "REVOKER_ROLE",
			"outputs": [
				{
					"internalType": "bytes32",
					"name": "",
					"type": "bytes32"
				}
			],
			"stateMutability": "view",
			"type": "function"
		},
		{
			"inputs": [
				{
					"internalType": "address",
					"name": "to",
					"type": "address"
				},
				{
					"internalType": "uint256",
					"name": "tokenId",
					"type": "uint256"
				}
			],
			"name": "approve",
			"outputs": [],
			"stateMutability": "nonpayable",
			"type": "function"
		},
		{
			"inputs": [
				{
					"internalType": "address",
					"name": "owner",
					"type": "address"
				}
			],
			"name": "balanceOf",
			"outputs": [
				{
					"internalType": "uint256",
					"name": "",
					"type": "uint256"
				}
			],
			"stateMutability": "view",
			"type": "function"
		},
		{
			"inputs": [
				{
					"internalType": "uint256",
					"name": "",
					"type": "uint256"
				}
			],
			"name": "credentialHashOf",
			"outputs": [
				{
					"internalType": "bytes32",
					"name": "",
					"type": "bytes32"
				}
			],
			"stateMutability": "view",
			"type": "function"
		},
		{
			"inputs": [
				{
					"internalType": "uint256",
					"name": "tokenId",
					"type": "uint256"
				}
			],
			"name": "getApproved",
			"outputs": [
				{
					"internalType": "address",
					"name": "",
					"type": "address"
				}
			],
			"stateMutability": "view",
			"type": "function"
		},
		{
			"inputs": [
				{
					"internalType": "bytes32",
					"name": "role",
					"type": "bytes32"
				}
			],
			"name": "getRoleAdmin",
			"outputs": [
				{
					"internalType": "bytes32",
					"name": "",
					"type": "bytes32"
				}
			],
			"stateMutability": "view",
			"type": "function"
		},
		{
			"inputs": [
				{
					"internalType": "bytes32",
					"name": "role",
					"type": "bytes32"
				},
				{
					"internalType": "address",
					"name": "account",
					"type": "address"
				}
			],
			"name": "grantRole",
			"outputs": [],
			"stateMutability": "nonpayable",
			"type": "function"
		},
		{
			"inputs": [
				{
					"internalType": "bytes32",
					"name": "role",
					"type": "bytes32"
				},
				{
					"internalType": "address",
					"name": "account",
					"type": "address"
				}
			],
			"name": "hasRole",
			"outputs": [
				{
					"internalType": "bool",
					"name": "",
					"type": "bool"
				}
			],
			"stateMutability": "view",
			"type": "function"
		},
		{
			"inputs": [],
			"name": "identity",
			"outputs": [
				{
					"internalType": "contract IIdentityContract",
					"name": "",
					"type": "address"
				}
			],
			"stateMutability": "view",
			"type": "function"
		},
		{
			"inputs": [
				{
					"internalType": "address",
					"name": "owner",
					"type": "address"
				},
				{
					"internalType": "address",
					"name": "operator",
					"type": "address"
				}
			],
			"name": "isApprovedForAll",
			"outputs": [
				{
					"internalType": "bool",
					"name": "",
					"type": "bool"
				}
			],
			"stateMutability": "view",
			"type": "function"
		},
		{
			"inputs": [
				{
					"internalType": "address",
					"name": "to",
					"type": "address"
				},
				{
					"internalType": "bytes32",
					"name": "credentialHash",
					"type": "bytes32"
				},
				{
					"internalType": "string",
					"name": "uri",
					"type": "string"
				}
			],
			"name": "issue",
			"outputs": [
				{
					"internalType": "uint256",
					"name": "",
					"type": "uint256"
				}
			],
			"stateMutability": "nonpayable",
			"type": "function"
		},
		{
			"inputs": [],
			"name": "name",
			"outputs": [
				{
					"internalType": "string",
					"name": "",
					"type": "string"
				}
			],
			"stateMutability": "view",
			"type": "function"
		},
		{
			"inputs": [],
			"name": "nextTokenId",
			"outputs": [
				{
					"internalType": "uint256",
					"name": "",
					"type": "uint256"
				}
			],
			"stateMutability": "view",
			"type": "function"
		},
		{
			"inputs": [
				{
					"internalType": "uint256",
					"name": "tokenId",
					"type": "uint256"
				}
			],
			"name": "ownerOf",
			"outputs": [
				{
					"internalType": "address",
					"name": "",
					"type": "address"
				}
			],
			"stateMutability": "view",
			"type": "function"
		},
		{
			"inputs": [
				{
					"internalType": "bytes32",
					"name": "role",
					"type": "bytes32"
				},
				{
					"internalType": "address",
					"name": "callerConfirmation",
					"type": "address"
				}
			],
			"name": "renounceRole",
			"outputs": [],
			"stateMutability": "nonpayable",
			"type": "function"
		},
		{
			"inputs": [
				{
					"internalType": "uint256",
					"name": "tokenId",
					"type": "uint256"
				}
			],
			"name": "revoke",
			"outputs": [],
			"stateMutability": "nonpayable",
			"type": "function"
		},
		{
			"inputs": [
				{
					"internalType": "bytes32",
					"name": "role",
					"type": "bytes32"
				},
				{
					"internalType": "address",
					"name": "account",
					"type": "address"
				}
			],
			"name": "revokeRole",
			"outputs": [],
			"stateMutability": "nonpayable",
			"type": "function"
		},
		{
			"inputs": [
				{
					"internalType": "address",
					"name": "from",
					"type": "address"
				},
				{
					"internalType": "address",
					"name": "to",
					"type": "address"
				},
				{
					"internalType": "uint256",
					"name": "tokenId",
					"type": "uint256"
				}
			],
			"name": "safeTransferFrom",
			"outputs": [],
			"stateMutability": "nonpayable",
			"type": "function"
		},
		{
			"inputs": [
				{
					"internalType": "address",
					"name": "from",
					"type": "address"
				},
				{
					"internalType": "address",
					"name": "to",
					"type": "address"
				},
				{
					"internalType": "uint256",
					"name": "tokenId",
					"type": "uint256"
				},
				{
					"internalType": "bytes",
					"name": "data",
					"type": "bytes"
				}
			],
			"name": "safeTransferFrom",
			"outputs": [],
			"stateMutability": "nonpayable",
			"type": "function"
		},
		{
			"inputs": [
				{
					"internalType": "address",
					"name": "operator",
					"type": "address"
				},
				{
					"internalType": "bool",
					"name": "approved",
					"type": "bool"
				}
			],
			"name": "setApprovalForAll",
			"outputs": [],
			"stateMutability": "nonpayable",
			"type": "function"
		},
		{
			"inputs": [
				{
					"internalType": "bytes4",
					"name": "interfaceId",
					"type": "bytes4"
				}
			],
			"name": "supportsInterface",
			"outputs": [
				{
					"internalType": "bool",
					"name": "",
					"type": "bool"
				}
			],
			"stateMutability": "view",
			"type": "function"
		},
		{
			"inputs": [],
			"name": "symbol",
			"outputs": [
				{
					"internalType": "string",
					"name": "",
					"type": "string"
				}
			],
			"stateMutability": "view",
			"type": "function"
		},
		{
			"inputs": [
				{
					"internalType": "uint256",
					"name": "tokenId",
					"type": "uint256"
				}
			],
			"name": "tokenURI",
			"outputs": [
				{
					"internalType": "string",
					"name": "",
					"type": "string"
				}
			],
			"stateMutability": "view",
			"type": "function"
		},
		{
			"inputs": [
				{
					"internalType": "address",
					"name": "from",
					"type": "address"
				},
				{
					"internalType": "address",
					"name": "to",
					"type": "address"
				},
				{
					"internalType": "uint256",
					"name": "tokenId",
					"type": "uint256"
				}
			],
			"name": "transferFrom",
			"outputs": [],
			"stateMutability": "nonpayable",
			"type": "function"
		}
	],
	"bytecode": "0x60806040523480156200001157600080fd5b5060405162001cc138038062001cc18339810160408190526200003491620001af565b6040518060400160405280601281526020017110da185a5b92510810dc9959195b9d1a585b60721b815250604051806040016040528060048152602001634349444360e01b81525081600090816200008d919062000288565b5060016200009c828262000288565b5050600880546001600160a01b0319166001600160a01b03841617905550620000c7600033620000fc565b50620000f47fce3f34913921da558f105cefb578d87278debbbd073a8d552b5de0d168deee3033620000fc565b505062000354565b60008281526007602090815260408083206001600160a01b038516845290915281205460ff16620001a55760008381526007602090815260408083206001600160a01b03861684529091529020805460ff191660011790556200015c3390565b6001600160a01b0316826001600160a01b0316847f2f8788117e7eff1d82e926ec794901d17c78024a50270940304540a733656f0d60405160405180910390a4506001620001a9565b5060005b92915050565b600060208284031215620001c257600080fd5b81516001600160a01b0381168114620001da57600080fd5b9392505050565b634e487b7160e01b600052604160045260246000fd5b600181811c908216806200020c57607f821691505b6020821081036200022d57634e487b7160e01b600052602260045260246000fd5b50919050565b601f82111562000283576000816000526020600020601f850160051c810160208610156200025e5750805b601f850160051c820191505b818110156200027f578281556001016200026a565b5050505b505050565b81516001600160401b03811115620002a457620002a4620001e1565b620002bc81620002b58454620001f7565b8462000233565b602080601f831160018114620002f45760008415620002db5750858301515b600019600386901b1c1916600185901b1785556200027f565b600085815260208120601f198616915b82811015620003255788860151825594840194600190910190840162000304565b5085821015620003445787850151600019600388901b60f8161c191681555b5050505050600190811b01905550565b61195d80620003646000396000f3fe608060405234801561001057600080fd5b50600436106101735760003560e01c80636352211e116100de578063a217fddf11610097578063c2ffffd811610071578063c2ffffd81461034a578063c87b56dd1461036a578063d547741f1461037d578063e985e9c51461039057600080fd5b8063a217fddf1461031c578063a22cb46514610324578063b88d4fde1461033757600080fd5b80636352211e146102ab57806370a08231146102be57806375794a3c146102d15780637c4acabf146102da57806391d148541461030157806395d89b411461031457600080fd5b8063248a9ca311610130578063248a9ca31461021b5780632c159a1a1461024c5780632f2ff15d1461025f57806336568abe1461027257806342842e0e14610285578063600a1aef1461029857600080fd5b806301ffc9a71461017857806306fdde03146101a0578063081812fc146101b5578063095ea7b3146101e057806320c5429b146101f557806323b872dd14610208575b600080fd5b61018b6101863660046113bb565b6103a3565b60405190151581526020015b60405180910390f35b6101a86103b4565b6040516101979190611428565b6101c86101c336600461143b565b610446565b6040516001600160a01b039091168152602001610197565b6101f36101ee366004611470565b61046f565b005b6101f361020336600461143b565b61047e565b6101f361021636600461149a565b610534565b61023e61022936600461143b565b60009081526007602052604090206001015490565b604051908152602001610197565b6008546101c8906001600160a01b031681565b6101f361026d3660046114d6565b6105bf565b6101f36102803660046114d6565b6105e4565b6101f361029336600461149a565b61061c565b61023e6102a636600461158e565b610637565b6101c86102b936600461143b565b6107d8565b61023e6102cc3660046115f9565b6107e3565b61023e60095481565b61023e7fce3f34913921da558f105cefb578d87278debbbd073a8d552b5de0d168deee3081565b61018b61030f3660046114d6565b61082b565b6101a8610856565b61023e600081565b6101f3610332366004611622565b610865565b6101f3610345366004611659565b610870565b61023e61035836600461143b565b600a6020526000908152604090205481565b6101a861037836600461143b565b610888565b6101f361038b3660046114d6565b610999565b61018b61039e3660046116d5565b6109be565b60006103ae826109ec565b92915050565b6060600080546103c3906116ff565b80601f01602080910402602001604051908101604052809291908181526020018280546103ef906116ff565b801561043c5780601f106104115761010080835404028352916020019161043c565b820191906000526020600020905b81548152906001019060200180831161041f57829003601f168201915b5050505050905090565b600061045182610a11565b506000828152600460205260409020546001600160a01b03166103ae565b61047a828233610a4a565b5050565b7fce3f34913921da558f105cefb578d87278debbbd073a8d552b5de0d168deee306104a881610a57565b6000828152600260205260409020546001600160a01b03166104fc5760405162461bcd60e51b81526020600482015260086024820152672737903a37b5b2b760c11b60448201526064015b60405180910390fd5b61050582610a64565b60405182907f0d47d5695004d2a4180ebb40037756439184993a0d1c6d4a8ff3a6aa9325607490600090a25050565b6001600160a01b03821661055e57604051633250574960e11b8152600060048201526024016104f3565b600061056b838333610a9f565b9050836001600160a01b0316816001600160a01b0316146105b9576040516364283d7b60e01b81526001600160a01b03808616600483015260248201849052821660448201526064016104f3565b50505050565b6000828152600760205260409020600101546105da81610a57565b6105b98383610b98565b6001600160a01b038116331461060d5760405163334bd91960e11b815260040160405180910390fd5b6106178282610c2c565b505050565b61061783838360405180602001604052806000815250610870565b600854604080516320abbe8960e21b815290516000926001600160a01b0316916391d148549183916382aefa249160048083019260209291908290030181865afa158015610689573d6000803e3d6000fd5b505050506040513d601f19601f820116820180604052508101906106ad9190611739565b6040516001600160e01b031960e084901b1681526004810191909152336024820152604401602060405180830381865afa1580156106ef573d6000803e3d6000fd5b505050506040513d601f19601f820116820180604052508101906107139190611752565b61074c5760405162461bcd60e51b815260206004820152600a6024820152692737ba1034b9b9bab2b960b11b60448201526064016104f3565b600060096000815461075d9061176f565b9182905550905061076e8582610c99565b6107788184610cb3565b6000818152600a602052604090819020859055516001600160a01b0386169082907f5ea57bccec79b331595b93a27faae703448b263cac5513c539e2c6511eb501f3906107c89088815260200190565b60405180910390a3949350505050565b60006103ae82610a11565b60006001600160a01b03821661080f576040516322718ad960e21b8152600060048201526024016104f3565b506001600160a01b031660009081526003602052604090205490565b60009182526007602090815260408084206001600160a01b0393909316845291905290205460ff1690565b6060600180546103c3906116ff565b61047a338383610d03565b61087b848484610534565b6105b93385858585610da2565b606061089382610a11565b50600082815260066020526040812080546108ad906116ff565b80601f01602080910402602001604051908101604052809291908181526020018280546108d9906116ff565b80156109265780601f106108fb57610100808354040283529160200191610926565b820191906000526020600020905b81548152906001019060200180831161090957829003601f168201915b50505050509050600061094460408051602081019091526000815290565b90508051600003610956575092915050565b815115610988578082604051602001610970929190611796565b60405160208183030381529060405292505050919050565b61099184610ecd565b949350505050565b6000828152600760205260409020600101546109b481610a57565b6105b98383610c2c565b6001600160a01b03918216600090815260056020908152604080832093909416825291909152205460ff1690565b60006001600160e01b03198216637965db0b60e01b14806103ae57506103ae82610f42565b6000818152600260205260408120546001600160a01b0316806103ae57604051637e27328960e01b8152600481018490526024016104f3565b6106178383836001610f67565b610a61813361106d565b50565b6000610a736000836000610a9f565b90506001600160a01b03811661047a57604051637e27328960e01b8152600481018390526024016104f3565b6000828152600260205260408120546001600160a01b0390811690831615610acc57610acc8184866110a6565b6001600160a01b03811615610b0a57610ae9600085600080610f67565b6001600160a01b038116600090815260036020526040902080546000190190555b6001600160a01b03851615610b39576001600160a01b0385166000908152600360205260409020805460010190555b60008481526002602052604080822080546001600160a01b0319166001600160a01b0389811691821790925591518793918516917fddf252ad1be2c89b69c2b068fc378daa952ba7f163c4a11628f55a4df523b3ef91a4949350505050565b6000610ba4838361082b565b610c245760008381526007602090815260408083206001600160a01b03861684529091529020805460ff19166001179055610bdc3390565b6001600160a01b0316826001600160a01b0316847f2f8788117e7eff1d82e926ec794901d17c78024a50270940304540a733656f0d60405160405180910390a45060016103ae565b5060006103ae565b6000610c38838361082b565b15610c245760008381526007602090815260408083206001600160a01b0386168085529252808320805460ff1916905551339286917ff6391f5c32d9c69d2a47ea670b442974b53935d1edc7fd64eb21e047a839171b9190a45060016103ae565b61047a82826040518060200160405280600081525061110a565b6000828152600660205260409020610ccb828261180d565b506040518281527ff8e1a15aba9398e019f0b49df1a4fde98ee17ae345cb5f6b5e2c27f5033e8ce79060200160405180910390a15050565b6001600160a01b038216610d3557604051630b61174360e31b81526001600160a01b03831660048201526024016104f3565b6001600160a01b03838116600081815260056020908152604080832094871680845294825291829020805460ff191686151590811790915591519182527f17307eab39ab6107e8899845ad3d59bd9653f200f220920489ca2b5937696c31910160405180910390a3505050565b6001600160a01b0383163b15610ec657604051630a85bd0160e11b81526001600160a01b0384169063150b7a0290610de49088908890879087906004016118cd565b6020604051808303816000875af1925050508015610e1f575060408051601f3d908101601f19168201909252610e1c9181019061190a565b60015b610e88573d808015610e4d576040519150601f19603f3d011682016040523d82523d6000602084013e610e52565b606091505b508051600003610e8057604051633250574960e11b81526001600160a01b03851660048201526024016104f3565b805160208201fd5b6001600160e01b03198116630a85bd0160e11b14610ec457604051633250574960e11b81526001600160a01b03851660048201526024016104f3565b505b5050505050565b6060610ed882610a11565b506000610ef060408051602081019091526000815290565b90506000815111610f105760405180602001604052806000815250610f3b565b80610f1a84611122565b604051602001610f2b929190611796565b6040516020818303038152906040525b9392505050565b60006001600160e01b03198216632483248360e11b14806103ae57506103ae826111b5565b8080610f7b57506001600160a01b03821615155b1561103d576000610f8b84610a11565b90506001600160a01b03831615801590610fb75750826001600160a01b0316816001600160a01b031614155b8015610fca5750610fc881846109be565b155b15610ff35760405163a9fbf51f60e01b81526001600160a01b03841660048201526024016104f3565b811561103b5783856001600160a01b0316826001600160a01b03167f8c5be1e5ebec7d5bd14f71427d1e84f3dd0314c0f7b2291e5b200ac8c7c3b92560405160405180910390a45b505b5050600090815260046020526040902080546001600160a01b0319166001600160a01b0392909216919091179055565b611077828261082b565b61047a5760405163e2517d3f60e01b81526001600160a01b0382166004820152602481018390526044016104f3565b6110b1838383611205565b610617576001600160a01b0383166110df57604051637e27328960e01b8152600481018290526024016104f3565b60405163177e802f60e01b81526001600160a01b0383166004820152602481018290526044016104f3565b6111148383611268565b610617336000858585610da2565b6060600061112f836112cd565b600101905060008167ffffffffffffffff81111561114f5761114f611502565b6040519080825280601f01601f191660200182016040528015611179576020820181803683370190505b5090508181016020015b600019016f181899199a1a9b1b9c1cb0b131b232b360811b600a86061a8153600a850494508461118357509392505050565b60006001600160e01b031982166380ac58cd60e01b14806111e657506001600160e01b03198216635b5e139f60e01b145b806103ae57506301ffc9a760e01b6001600160e01b03198316146103ae565b60006001600160a01b038316158015906109915750826001600160a01b0316846001600160a01b0316148061123f575061123f84846109be565b806109915750506000908152600460205260409020546001600160a01b03908116911614919050565b6001600160a01b03821661129257604051633250574960e11b8152600060048201526024016104f3565b60006112a083836000610a9f565b90506001600160a01b03811615610617576040516339e3563760e11b8152600060048201526024016104f3565b60008072184f03e93ff9f4daa797ed6e38ed64bf6a1f0160401b831061130c5772184f03e93ff9f4daa797ed6e38ed64bf6a1f0160401b830492506040015b6d04ee2d6d415b85acef81000000008310611338576d04ee2d6d415b85acef8100000000830492506020015b662386f26fc10000831061135657662386f26fc10000830492506010015b6305f5e100831061136e576305f5e100830492506008015b612710831061138257612710830492506004015b60648310611394576064830492506002015b600a83106103ae5760010192915050565b6001600160e01b031981168114610a6157600080fd5b6000602082840312156113cd57600080fd5b8135610f3b816113a5565b60005b838110156113f35781810151838201526020016113db565b50506000910152565b600081518084526114148160208601602086016113d8565b601f01601f19169290920160200192915050565b602081526000610f3b60208301846113fc565b60006020828403121561144d57600080fd5b5035919050565b80356001600160a01b038116811461146b57600080fd5b919050565b6000806040838503121561148357600080fd5b61148c83611454565b946020939093013593505050565b6000806000606084860312156114af57600080fd5b6114b884611454565b92506114c660208501611454565b9150604084013590509250925092565b600080604083850312156114e957600080fd5b823591506114f960208401611454565b90509250929050565b634e487b7160e01b600052604160045260246000fd5b600067ffffffffffffffff8084111561153357611533611502565b604051601f8501601f19908116603f0116810190828211818310171561155b5761155b611502565b8160405280935085815286868601111561157457600080fd5b858560208301376000602087830101525050509392505050565b6000806000606084860312156115a357600080fd5b6115ac84611454565b925060208401359150604084013567ffffffffffffffff8111156115cf57600080fd5b8401601f810186136115e057600080fd5b6115ef86823560208401611518565b9150509250925092565b60006020828403121561160b57600080fd5b610f3b82611454565b8015158114610a6157600080fd5b6000806040838503121561163557600080fd5b61163e83611454565b9150602083013561164e81611614565b809150509250929050565b6000806000806080858703121561166f57600080fd5b61167885611454565b935061168660208601611454565b925060408501359150606085013567ffffffffffffffff8111156116a957600080fd5b8501601f810187136116ba57600080fd5b6116c987823560208401611518565b91505092959194509250565b600080604083850312156116e857600080fd5b6116f183611454565b91506114f960208401611454565b600181811c9082168061171357607f821691505b60208210810361173357634e487b7160e01b600052602260045260246000fd5b50919050565b60006020828403121561174b57600080fd5b5051919050565b60006020828403121561176457600080fd5b8151610f3b81611614565b60006001820161178f57634e487b7160e01b600052601160045260246000fd5b5060010190565b600083516117a88184602088016113d8565b8351908301906117bc8183602088016113d8565b01949350505050565b601f821115610617576000816000526020600020601f850160051c810160208610156117ee5750805b601f850160051c820191505b81811015610ec4578281556001016117fa565b815167ffffffffffffffff81111561182757611827611502565b61183b8161183584546116ff565b846117c5565b602080601f83116001811461187057600084156118585750858301515b600019600386901b1c1916600185901b178555610ec4565b600085815260208120601f198616915b8281101561189f57888601518255948401946001909101908401611880565b50858210156118bd5787850151600019600388901b60f8161c191681555b5050505050600190811b01905550565b6001600160a01b0385811682528416602082015260408101839052608060608201819052600090611900908301846113fc565b9695505050505050565b60006020828403121561191c57600080fd5b8151610f3b816113a556fea2646970667358221220714a09458931eb857ddf94eb77bab2bfbc52bc0ab62910f3ff8fc54b4028a74b64736f6c63430008180033",
	"linkReferences": {},
	"deployedLinkReferences": {}
}