{
	"_format": "hh-sol-artifact-1",
	"contractName": "IdentityContract",
	"sourceName": "contracts/IdentityContract.sol",
	"abi": [
		{
			"inputs": [
				{
					"internalType": "address",
					"name": "initialOwner",
					"type": "address"
				}
			],
			"stateMutability": "nonpayable",
			"type": "constructor"
		},
		{
			"inputs": [],
			"name": "AccessControlBadConfirmation",
			"type": "error"
		},
		{
			"inputs": [
				{
					"internalType": "address",
					"name": "account",
					"type": "address"
				},
				{
					"internalType": "bytes32",
					"name": "neededRole",
					"type": "bytes32"
				}
			],
			"name": "AccessControlUnauthorizedAccount",
			"type": "error"
		},
		{
			"inputs": [
				{
					"internalType": "address",
					"name": "owner",
					"type": "address"
				}
			],
			"name": "OwnableInvalidOwner",
			"type": "error"
		},
		{
			"inputs": [
				{
					"internalType": "address",
					"name": "account",
					"type": "address"
				}
			],
			"name": "OwnableUnauthorizedAccount",
			"type": "error"
		},
		{
			"anonymous": false,
			"inputs": [
				{
					"indexed": true,
					"internalType": "address",
					"name": "owner",
					"type": "address"
				},
				{
					"indexed": false,
					"internalType": "bytes32",
					"name": "profileHash",
					"type": "bytes32"
				}
			],
			"name": "DIDRegistered",
			"type": "event"
		},
		{
			"anonymous": false,
			"inputs": [
				{
					"indexed": true,
					"internalType": "address",
					"name": "owner",
					"type": "address"
				},
				{
					"indexed": false,
					"internalType": "bytes32",
					"name": "profileHash",
					"type": "bytes32"
				}
			],
			"name": "DIDUpdated",
			"type": "event"
		},
		{
			"anonymous": false,
			"inputs": [
				{
					"indexed": true,
					"internalType": "address",
					"name": "account",
					"type": "address"
				}
			],
			"name": "IssuerAdded",
			"type": "event"
		},
		{
			"anonymous": false,
			"inputs": [
				{
					"indexed": true,
					"internalType": "address",
					"name": "account",
					"type": "address"
				}
			],
			"name": "IssuerRemoved",
			"type": "event"
		},
		{
			"anonymous": false,
			"inputs": [
				{
					"indexed": true,
					"internalType": "address",
					"name": "previousOwner",
					"type": "address"
				},
				{
					"indexed": true,
					"internalType": "address",
					"name": "newOwner",
					"type": "address"
				}
			],
			"name": "OwnershipTransferred",
			"type": "event"
		},
		{
			"anonymous": false,
			"inputs": [
				{
					"indexed": true,
					"internalType": "bytes32",
					"name": "role",
					"type": "bytes32"
				},
				{
					"indexed": true,
					"internalType": "bytes32",
					"name": "previousAdminRole",
					"type": "bytes32"
				},
				{
					"indexed": true,
					"internalType": "bytes32",
					"name": "newAdminRole",
					"type": "bytes32"
				}
			],
			"name": "RoleAdminChanged",
			"type": "event"
		},
		{
			"anonymous": false,
			"inputs": [
				{
					"indexed": true,
					"internalType": "bytes32",
					"name": "role",
					"type": "bytes32"
				},
				{
					"indexed": true,
					"internalType": "address",
					"name": "account",
					"type": "address"
				},
				{
					"indexed": true,
					"internalType": "address",
					"name": "sender",
					"type": "address"
				}
			],
			"name": "RoleGranted",
			"type": "event"
		},
		{
			"anonymous": false,
			"inputs": [
				{
					"indexed": true,
					"internalType": "bytes32",
					"name": "role",
					"type": "bytes32"
				},
				{
					"indexed": true,
					"internalType": "address",
					"name": "account",
					"type": "address"
				},
				{
					"indexed": true,
					"internalType": "address",
					"name": "sender",
					"type": "address"
				}
			],
			"name": "RoleRevoked",
			"type": "event"
		},
		{
			"inputs": [],
			"name": "DEFAULT_ADMIN_ROLE",
			"outputs": [
				{
					"internalType": "bytes32",
					"name": "",
					"type": "bytes32"
				}
			],
			"stateMutability": "view",
			"type": "function"
		},
		{
			"inputs": [],
			"name": "GOVERNMENT_ROLE",
			"outputs": [
				{
					"internalType": "bytes32",
					"name": "",
					"type": "bytes32"
				}
			],
			"stateMutability": "view",
			"type": "function"
		},
		{
			"inputs": [],
			"name": "ISSUER_ROLE",
			"outputs": [
				{
					"internalType": "bytes32",
					"name": "",
					"type": "bytes32"
				}
			],
			"stateMutability": "view",
			"type": "function"
		},
		{
			"inputs": [
				{
					"internalType": "address",
					"name": "account",
					"type": "address"
				}
			],
			"name": "addIssuer",
			"outputs": [],
			"stateMutability": "nonpayable",
			"type": "function"
		},
		{
			"inputs": [
				{
					"internalType": "address",
					"name": "",
					"type": "address"
				}
			],
			"name": "didOf",
			"outputs": [
				{
					"internalType": "address",
					"name": "owner",
					"type": "address"
				},
				{
					"internalType": "bytes32",
					"name": "profileHash",
					"type": "bytes32"
				},
				{
					"internalType": "uint256",
					"name": "registeredAt",
					"type": "uint256"
				}
			],
			"stateMutability": "view",
			"type": "function"
		},
		{
			"inputs": [
				{
					"internalType": "bytes32",
					"name": "role",
					"type": "bytes32"
				}
			],
			"name": "getRoleAdmin",
			"outputs": [
				{
					"internalType": "bytes32",
					"name": "",
					"type": "bytes32"
				}
			],
			"stateMutability": "view",
			"type": "function"
		},
		{
			"inputs": [
				{
					"internalType": "bytes32",
					"name": "role",
					"type": "bytes32"
				},
				{
					"internalType": "address",
					"name": "account",
					"type": "address"
				}
			],
			"name": "grantRole",
			"outputs": [],
			"stateMutability": "nonpayable",
			"type": "function"
		},
		{
			"inputs": [
				{
					"internalType": "bytes32",
					"name": "role",
					"type": "bytes32"
				},
				{
					"internalType": "address",
					"name": "account",
					"type": "address"
				}
			],
			"name": "hasRole",
			"outputs": [
				{
					"internalType": "bool",
					"name": "",
					"type": "bool"
				}
			],
			"stateMutability": "view",
			"type": "function"
		},
		{
			"inputs": [
				{
					"internalType": "address",
					"name": "user",
					"type": "address"
				}
			],
			"name": "isRegistered",
			"outputs": [
				{
					"internalType": "bool",
					"name": "",
					"type": "bool"
				}
			],
			"stateMutability": "view",
			"type": "function"
		},
		{
			"inputs": [],
			"name": "owner",
			"outputs": [
				{
					"internalType": "address",
					"name": "",
					"type": "address"
				}
			],
			"stateMutability": "view",
			"type": "function"
		},
		{
			"inputs": [
				{
					"internalType": "bytes32",
					"name": "profileHash",
					"type": "bytes32"
				}
			],
			"name": "registerDID",
			"outputs": [],
			"stateMutability": "nonpayable",
			"type": "function"
		},
		{
			"inputs": [
				{
					"internalType": "address",
					"name": "account",
					"type": "address"
				}
			],
			"name": "removeIssuer",
			"outputs": [],
			"stateMutability": "nonpayable",
			"type": "function"
		},
		{
			"inputs": [],
			"name": "renounceOwnership",
			"outputs": [],
			"stateMutability": "nonpayable",
			"type": "function"
		},
		{
			"inputs": [
				{
					"internalType": "bytes32",
					"name": "role",
					"type": "bytes32"
				},
				{
					"internalType": "address",
					"name": "callerConfirmation",
					"type": "address"
				}
			],
			"name": "renounceRole",
			"outputs": [],
			"stateMutability": "nonpayable",
			"type": "function"
		},
		{
			"inputs": [
				{
					"internalType": "bytes32",
					"name": "role",
					"type": "bytes32"
				},
				{
					"internalType": "address",
					"name": "account",
					"type": "address"
				}
			],
			"name": "revokeRole",
			"outputs": [],
			"stateMutability": "nonpayable",
			"type": "function"
		},
		{
			"inputs": [
				{
					"internalType": "bytes4",
					"name": "interfaceId",
					"type": "bytes4"
				}
			],
			"name": "supportsInterface",
			"outputs": [
				{
					"internalType": "bool",
					"name": "",
					"type": "bool"
				}
			],
			"stateMutability": "view",
			"type": "function"
		},
		{
			"inputs": [
				{
					"internalType": "address",
					"name": "newOwner",
					"type": "address"
				}
			],
			"name": "transferOwnership",
			"outputs": [],
			"stateMutability": "nonpayable",
			"type": "function"
		},
		{
			"inputs": [
				{
					"internalType": "bytes32",
					"name": "newProfileHash",
					"type": "bytes32"
				}
			],
			"name": "updateDID",
			"outputs": [],
			"stateMutability": "nonpayable",
			"type": "function"
		}
	],
	"bytecode": "0x608060405234801561001057600080fd5b50604051610b63380380610b6383398101604081905261002f9161018a565b806001600160a01b03811661005e57604051631e4fbdf760e01b81526000600482015260240160405180910390fd5b610067816100a5565b506100736000826100f5565b5061009e7fd9d062b29c8756d894f301c5167d214c34d627724cd7fc859ab9329c9330cf51826100f5565b50506101ba565b600080546001600160a01b038381166001600160a01b0319831681178455604051919092169283917f8be0079c531659141344cd1fd0a4f28419497f9722a3daafe3b4186f6b6457e09190a35050565b60008281526001602090815260408083206001600160a01b038516845290915281205460ff166101805760008381526001602081815260408084206001600160a01b0387168086529252808420805460ff19169093179092559051339286917f2f8788117e7eff1d82e926ec794901d17c78024a50270940304540a733656f0d9190a4506001610184565b5060005b92915050565b60006020828403121561019c57600080fd5b81516001600160a01b03811681146101b357600080fd5b9392505050565b61099a806101c96000396000f3fe608060405234801561001057600080fd5b50600436106101165760003560e01c806382aefa24116100a2578063a217fddf11610071578063a217fddf146102b9578063ad1a47c8146102c1578063c3c5a547146102d4578063d547741f14610302578063f2fde38b1461031557600080fd5b806382aefa241461023d5780638da5cb5b1461026457806391d148541461027f5780639cbed5821461029257600080fd5b80632f2ff15d116100e95780632f2ff15d1461019d578063364c707b146101b057806336568abe1461020f57806347bc709314610222578063715018a61461023557600080fd5b806301ffc9a71461011b57806320694db014610143578063248a9ca31461015857806326593d711461018a575b600080fd5b61012e6101293660046108b7565b610328565b60405190151581526020015b60405180910390f35b610156610151366004610904565b610339565b005b61017c61016636600461091f565b6000908152600160208190526040909120015490565b60405190815260200161013a565b61015661019836600461091f565b6103c6565b6101566101ab366004610938565b61046f565b6101ea6101be366004610904565b60026020819052600091825260409091208054600182015491909201546001600160a01b039092169183565b604080516001600160a01b03909416845260208401929092529082015260600161013a565b61015661021d366004610938565b61049b565b610156610230366004610904565b6104d3565b610156610560565b61017c7f114e74f6ea3bd819998f78687bfcb11b140da08e9b7d222fa9c1f1ba1f2aa12281565b6000546040516001600160a01b03909116815260200161013a565b61012e61028d366004610938565b610574565b61017c7fd9d062b29c8756d894f301c5167d214c34d627724cd7fc859ab9329c9330cf5181565b61017c600081565b6101566102cf36600461091f565b61059f565b61012e6102e2366004610904565b6001600160a01b0390811660009081526002602052604090205416151590565b610156610310366004610938565b610674565b610156610323366004610904565b61069a565b6000610333826106d8565b92915050565b7fd9d062b29c8756d894f301c5167d214c34d627724cd7fc859ab9329c9330cf516103638161070d565b61038d7f114e74f6ea3bd819998f78687bfcb11b140da08e9b7d222fa9c1f1ba1f2aa12283610717565b506040516001600160a01b038316907f05e7c881d716bee8cb7ed92293133ba156704252439e5c502c277448f04e20c290600090a25050565b336000818152600260205260409020546001600160a01b03161461041d5760405162461bcd60e51b81526020600482015260096024820152682737ba1037bbb732b960b91b60448201526064015b60405180910390fd5b3360008181526002602052604090819020600101839055517f59c1474d45b6dafc1b2fe740b741ce1371d018996e63e9a86ad283563820452c906104649084815260200190565b60405180910390a250565b6000828152600160208190526040909120015461048b8161070d565b6104958383610717565b50505050565b6001600160a01b03811633146104c45760405163334bd91960e11b815260040160405180910390fd5b6104ce8282610790565b505050565b7fd9d062b29c8756d894f301c5167d214c34d627724cd7fc859ab9329c9330cf516104fd8161070d565b6105277f114e74f6ea3bd819998f78687bfcb11b140da08e9b7d222fa9c1f1ba1f2aa12283610790565b506040516001600160a01b038316907faf66545c919a3be306ee446d8f42a9558b5b022620df880517bc9593ec0f2d5290600090a25050565b6105686107fd565b610572600061082a565b565b60009182526001602090815260408084206001600160a01b0393909316845291905290205460ff1690565b336000908152600260205260409020546001600160a01b0316156105f25760405162461bcd60e51b815260206004820152600a6024820152694449442065786973747360b01b6044820152606401610414565b60408051606081018252338082526020808301858152428486019081526000848152600280855290879020955186546001600160a01b0319166001600160a01b03909116178655915160018601555193019290925591518381527fa3c17eb7da90583049fca37ba7d2ca99968a8ad5f8b1857ee761b91143f00e4b9101610464565b600082815260016020819052604090912001546106908161070d565b6104958383610790565b6106a26107fd565b6001600160a01b0381166106cc57604051631e4fbdf760e01b815260006004820152602401610414565b6106d58161082a565b50565b60006001600160e01b03198216637965db0b60e01b148061033357506301ffc9a760e01b6001600160e01b0319831614610333565b6106d5813361087a565b60006107238383610574565b6107885760008381526001602081815260408084206001600160a01b0387168086529252808420805460ff19169093179092559051339286917f2f8788117e7eff1d82e926ec794901d17c78024a50270940304540a733656f0d9190a4506001610333565b506000610333565b600061079c8383610574565b156107885760008381526001602090815260408083206001600160a01b0386168085529252808320805460ff1916905551339286917ff6391f5c32d9c69d2a47ea670b442974b53935d1edc7fd64eb21e047a839171b9190a4506001610333565b6000546001600160a01b031633146105725760405163118cdaa760e01b8152336004820152602401610414565b600080546001600160a01b038381166001600160a01b0319831681178455604051919092169283917f8be0079c531659141344cd1fd0a4f28419497f9722a3daafe3b4186f6b6457e09190a35050565b6108848282610574565b6108b35760405163e2517d3f60e01b81526001600160a01b038216600482015260248101839052604401610414565b5050565b6000602082840312156108c957600080fd5b81356001600160e01b0319811681146108e157600080fd5b9392505050565b80356001600160a01b03811681146108ff57600080fd5b919050565b60006020828403121561091657600080fd5b6108e1826108e8565b60006020828403121561093157600080fd5b5035919050565b6000806040838503121561094b57600080fd5b8235915061095b602084016108e8565b9050925092905056fea2646970667358221220e473feabe5afc9925ccdd2db8b44bfe172e6c8352006eadcd7bc265de09df66164736f6c63430008180033",
	"linkReferences": {},
	"deployedLinkReferences": {}
}