{
	"_format": "hh-sol-artifact-1",
	"contractName": "MockVerifier",
	"sourceName": "contracts/MockVerifier.sol",
	"abi": [
		{
			"inputs": [
				{
					"internalType": "bytes",
					"name": "proof",
					"type": "bytes"
				},
				{
					"internalType": "bytes32",
					"name": "",
					"type": "bytes32"
				}
			],
			"name": "verify",
			"outputs": [
				{
					"internalType": "bool",
					"name": "",
					"type": "bool"
				}
			],
			"stateMutability": "pure",
			"type": "function"
		}
	],
	"bytecode": "0x608060405234801561001057600080fd5b5060fd8061001f6000396000f3fe6080604052348015600f57600080fd5b506004361060285760003560e01c80636b40634114602d575b600080fd5b604060383660046054565b501515919050565b604051901515815260200160405180910390f35b600080600060408486031215606857600080fd5b833567ffffffffffffffff80821115607f57600080fd5b818601915086601f830112609257600080fd5b81358181111560a057600080fd5b87602082850101111560b157600080fd5b602092830198909750959091013594935050505056fea264697066735822122088d66b233d59936d613dc798363df05d445bb9e1614b601f1ab2db82852dd70864736f6c63430008180033",
	"linkReferences": {},
	"deployedLinkReferences": {}
}